:020000040000fa
:10000000f03f002045740000f1810000f7810000fe
:1000100000000000000000000000000000000000e0
:100020000000000000000000000000001b24000091
:1000300000000000000000001b2400005d770000ad
:100040001b2400001b2400001b2400001b240000b4
:100050001b2400001b2400001b2400001b240000a4
:100060001b2400001b2400009381000015380000b1
:100070001b2400001b2400001d2400001b24000082
:100080001b2400001b2400001b2400001b24000074
:10009000a18100001b2400001b240000317100001e
:1000a000817100001b2400001b2400001b240000a1
:0c00b0001b2400001b2400001b24000087
:020000040000fa
:1000bc00f8b5c046f8bc08bc9e46704725740000d5
:1000cc00f8b5c046f8bc08bc9e467047fd730000ee
:020000040000fa
:1000dc00ff0fff0fff0fff0fff0fff0fff0f1d1184
:1000ec00ff0fff0fff0fff0fff0fff0fff0ff4109e
:1000fc00ff0fff0fff0fff0fff0fff0fff0fc710bb
:10010c00ff0fff0fff0fff0fff0fff0fff0f9811d8
:10011c00ff0fff0fff0fff0fff0fff0fff0fc1119f
:10012c00ff0fff0fff0fff0fff0fff0fff0f3c1213
:10013c00ff0fff0fff0fff0fff0fff0fff0fb71288
:10014c00ff0fff0fff0fff0fff0fff0fff0fb71278
:10015c00ff0fff0fff0fff0fff0fff0fff0f8e1291
:10016c00ff0fff0fff0fff0fff0fff0fff0fea1126
:10017c00ff0fff0fff0fff0fff0fff0fff0f4611ba
:10018c00ff0fff0fff0fff0fff0fff0fff0f1d11d3
:10019c00ff0fff0fff0fff0fff0fff0fff0fcf1012
:1001ac00ff0fff0fff0fff0fff0fff0fff0f8e1043
:1001bc00ff0fff0fff0fff0fff0fff0fff0fff0fc3
:1001cc00ff0fff0fff0fff0fff0fff0fff0fff0fb3
:1001dc00ff0fff0fff0fff0fff0fff0fff0f501051
:1001ec00ff0fff0fff0fff0fff0fff0fff0f501041
:1001fc00ff0fff0fff0fff0fff0fff0fff0f8f10f2
:10020c00ff0fff0fff0fff0fff0fff0fff0fa210ce
:10021c00ff0fff0fff0fff0fff0fff0fff0feb1075
:10022c00ff0fff0fff0fff0fff0fff0fff0f05114a
:10023c00ff0fff0fff0fff0fff0fff0fff0f14122a
:10024c007914ff0fff0fff0fff0fff0fff0fff0fb3
:10025c00ff0fff0fff0fff0fff0fff0f840f840f18
:10026c00b7128e12ff0fff0fff0fff0fff0fff0fc5
:10027c003c12ff0f8e13831bff0fff0f831bff0f0f
:10028c0055105510ff0f530e530e65122710360dd7
:10029c00ff0fff0f360dff0fff0fe0125010150f61
:1002ac00280e280ed513b70e3c0e960dff0fff0f20
:1002bc00ff0fff0fff0fff0fff0fff0fff0fff0fc2
:1002cc00ff0fff0fff0fff0fff0fff0fff0fff0fb2
:1002dc00ff0fff0f0d144710b70dff0fff0f471047
:1002ec00b70d46196312ff0fff0fff0fff0fff0f24
:1002fc00ff0fff0fff0fff0fff0fff0fff0f5b1223
:10030c003912ff0fff0fff0fff0fff0fff0fff0f34
:10031c00ff0fff0fff0fff0fff0fff0fff0fff0f61
:10032c00ff0fff0fff0fff0fff0fff0fff0fff0f51
:10033c00ff0fff0fff0fff0fff0fff0fff0f4a12f3
:10034c00ff0fff0fff0fff0f6512ff0fff0fff0fc8
:10035c00ff0fff0fff0fff0fff0f6512ff0fff0fb8
:10036c00ff0fff0f2d12ff0fff0fff0fff0fff0fe0
:10037c00ff0fff0fff0fff0fff0fff0fff0fff0f01
:10038c00ff0fff0fff0fff0fff0fff0fff0fff0ff1
:10039c00ff0fff0fff0fff0fff0fff0f4112ff0f9c
:1003ac00a4110511ff0fff0fff0fff0fff0fff0f22
:1003bc00ff0fff0fff0fff0fff0fff0fb7105d10a9
:1003cc00ff0fff0fff0fff0fff0fff0fff0fff0fb1
:1003dc00ff0fff0fff0fff0fff0fff0fff0fff0fa1
:1003ec00ff0fff0fff0fff0fff0fff0fff0fff0f91
:1003fc00ff0fff0fff0fff0f4c100b10ff0fff0f26
:10040c00ff0fff0fcb10ff0fff0fff0fff0fff0fa3
:10041c00ff0fff0fff0fff0fff0fff0fff0f1d1140
:10042c004611ff0fff0fff0fff0fff0fff0fff0f07
:10043c00ff0fff0fff0fff0fff0fff0fff0fff0f40
:10044c00ff0fff0fff0fff0fff0fff0fff0fff0f30
:10045c00ff0fff0fff0fff0fff0fff0fff0ffc1022
:10046c00af10ff0fff0fff0fff0fff0fff0fff0f5f
:10047c00ff0fff0fff0fff0fff0fff0fff0fff0f00
:10048c00ff0fff0fff0fff0fff0fff0fff0fff0ff0
:10049c00ff0fff0fff0fff0fff0fff0fff0f791065
:1004ac00ff0fff0fff0fff0f7910ff0fff0fff0f55
:1004bc00ff0fff0fff0fff0fff0f4c10ff0fff0f72
:1004cc00ff0fff0f5d10ff0fff0fff0fff0fff0f51
:1004dc00ff0fff0fff0fff0fff0fff0fff0fff0fa0
:1004ec00ff0fff0fff0fff0fff0fff0fff0fff0f90
:1004fc00ff0fff0fff0fff0fff0fff0fff0f131269
:10050c0013125212ff0fff0fff0fff0fff0fff0f02
:10051c00ff0fff0fff0fff0fff0fff0f651265128d
:10052c00ff0fff0fff0fff0fff0fff0fff0fff0f4f
:10053c00ff0fff0fff0fff0fff0fff0fff0fff0f3f
:10054c00ff0fff0fff0fff0fff0fff0fff0fff0f2f
:10055c00ff0fff0fff0fff0f8e126512ff0fff0f24
:10056c00ff0fff0fff0fff0fff0fff0fff0fff0f0f
:10057c00ff0fff0fe012b712ff0fff0fff0fff0f60
:10058c00ff0fff0fff0fff0fff0fff0fff0fff0fef
:10059c00ff0fff0fff0fff0fff0fff0fff0fff0fdf
:1005ac00ff0fff0fff0fff0fff0fff0fff0fff0fcf
:1005bc00ff0fff0fad0fea11be16ff0f3117ff0f24
:1005cc00ff0fff0fff0fff0fff0fff0fff0fff0faf
:1005dc00ff0fcb10ff0fff0f9811ff0ff31cff0f36
:1005ec00a61414101410b0174a12ff0fff0fff0fb0
:1005fc00ff0fa90fcb18cb14ff0f2710da0ff4182d
:10060c008313a21098191d152710ad0fff0fff0fa4
:10061c00ff0fff0fff0fff0fff0fff0fd60fac1bce
:10062c009c11e00eff0fff0fff0fff0fff0fff0fcf
:10063c00ff0fff0fff0fff0fff0fff0fff0fb31188
:10064c007711ff0fff0fff0fff0fff0fff0fff0fb4
:10065c00ff0f1511ff0fff0fff0fff0fff0fff0f06
:10066c00b310ff0fff0fff0fff0fff0fff0fff0f59
:10067c00ff0f7d10ff0fff0fff0fff0fff0fff0f7f
:10068c00ff0fff0fff0fff0fff0fff0fff0fff0fee
:10069c00ff0fff0fff0fff0fff0fff0fff0fff0fde
:1006ac00ff0f5010cb10ff0fff0fff0fff0fff0faf
:020000040000fa
:1006bc00ff0fff0fff0fff0fff0fff0fff0f8e102e
:1006cc00ff0fff0fff0fff0fff0fff0fff0fcf10dd
:1006dc00ff0fff0fff0fff0fff0fff0fff0f1d117e
:1006ec00ff0fff0fff0fff0fff0fff0fff0f461145
:1006fc00ff0fff0fff0fff0fff0fff0fff0fea1191
:10070c00ff0fff0fff0fff0fff0fff0fff0f8e12db
:10071c00ff0fff0fff0fff0fff0fff0fff0fb712a2
:10072c00ff0fff0fff0fff0fff0fff0fff0fb71292
:10073c00ff0fff0fff0fff0fff0fff0fff0f3c12fd
:10074c00ff0fff0fff0fff0fff0fff0fff0fc11169
:10075c00ff0fff0fff0fff0fff0fff0fff0f981182
:10076c00ff0fff0fff0fff0fff0fff0fff0fc71044
:10077c00ff0fff0fff0fff0fff0fff0fff0ff41007
:10078c00ff0fff0fff0fff0fff0fff0fff0f1d11cd
:10079c00ff0fff0fff0fff0fff0fff0fff0fcb1010
:1007ac005010ff0fff0fff0fff0fff0fff0fff0f7b
:1007bc00ff0fff0fff0fff0fff0fff0fff0fff0fbd
:1007cc00ff0fff0fff0fff0fff0fff0fff0f7d102e
:1007dc00ff0fff0fff0fff0fff0fff0fff0fb310e8
:1007ec00ff0fff0fff0fff0fff0fff0fff0f151175
:1007fc00ff0fff0fff0fff0fff0fff0fff0f771103
:10080c00ff0fff0fff0fff0fff0fb311ff0fff0fb6
:10081c00ff0fff0fff0fff0fff0fff0fff0f9c11bd
:10082c00ac1be00eff0fff0fff0fff0fff0fff0fb3
:10083c00d60f27101d159819ad0fa210ff0f83139b
:10084c00f418ff0f2710cb14cb18ff0fff0fda0f84
:10085c00ff0fff0fff0fff0fff0fff0fff0fff0f1c
:10086c00ff0fff0fff0fff0fff0fff0fff0fff0f0c
:10087c00ff0fa90f4a12b01714101410a614ff0f73
:10088c00f31cff0f9811ff0fff0fff0fff0fff0f50
:10089c00ff0fff0fff0fff0fff0fcb10ff0f3117d5
:1008ac00be16ad0fff0fff0fff0fff0fff0fff0f58
:1008bc00ff0fff0fff0fff0fff0fff0fea11b71214
:1008cc00e012ff0fff0fff0fff0fff0fff0fff0fc8
:1008dc00ff0fff0fff0fff0fff0f6512ff0fff0f33
:1008ec00ff0fff0fff0fff0f8e12ff0fff0fff0ffa
:1008fc00ff0fff0fff0fff0fff0fff0fff0fff0f7c
:10090c00ff0fff0fff0fff0fff0fff0fff0fff0f6b
:10091c00ff0fff0fff0fff0fff0fff0fff0fff0f5b
:10092c00ff0f6512ff0fff0fff0fff0fff0fff0fe2
:10093c00ff0fff0fff0fff0fff0fff0f651252127c
:10094c0013121312ff0fff0fff0fff0fff0fff0ffd
:10095c00ff0fff0fff0fff0fff0fff0fff0fff0f1b
:10096c00ff0fff0fff0fff0fff0fff0fff0fff0f0b
:10097c00ff0fff0fff0fff0fff0fff0f5d104c104e
:10098c00ff0fff0fff0fff0fff0fff0fff0fff0feb
:10099c00ff0fff0fff0fff0f7910ff0fff0fff0f60
:1009ac00ff0f7910ff0fff0fff0fff0fff0fff0f50
:1009bc00ff0fff0fff0fff0fff0fff0fff0fff0fbb
:1009cc00ff0fff0fff0fff0fff0fff0fff0fff0fab
:1009dc00ff0fff0fff0fff0fff0fff0fff0fff0f9b
:1009ec00af10fc10ff0fff0fff0fff0fff0fff0fdc
:1009fc00ff0fff0f4611ff0f1d11ff0fff0fff0f12
:100a0c00ff0fff0fff0fff0fff0fff0fff0fff0f6a
:100a1c00ff0fff0fff0fff0fff0fff0fff0fff0f5a
:100a2c00ff0fff0fff0fff0fff0fff0fff0fff0f4a
:100a3c00ff0fff0fff0fff0fcb100b10ff0fff0f60
:100a4c004c10ff0fff0fff0fff0fff0fff0fff0fdc
:100a5c00ff0fff0fff0fff0fff0fff0fff0fff0f1a
:100a6c00ff0fff0fff0fff0fff0fff0fff0fff0f0a
:100a7c00ff0fff0fff0fff0fff0fff0fff0fff0ffa
:100a8c00ff0f5d10ff0fff0fff0fff0fff0fff0f8b
:100a9c00ff0fff0fff0fff0fff0fff0fb710051119
:100aac00a4114112ff0fff0fff0fff0fff0fff0fde
:100abc00ff0fff0fff0fff0fff0fff0fff0fff0fba
:100acc00ff0fff0fff0fff0fff0fff0fff0fff0faa
:100adc00ff0fff0fff0fff0fff0fff0f2d12651200
:100aec00ff0fff0fff0fff0fff0fff0fff0fff0f8a
:100afc00ff0fff0fff0fff0f6512ff0fff0fff0f11
:100b0c00ff0f4a12ff0fff0fff0fff0fff0fff0f1b
:100b1c00ff0fff0fff0fff0fff0fff0fff0fff0f59
:100b2c00ff0fff0fff0fff0fff0fff0fff0fff0f49
:100b3c00ff0fff0f3912ff0fff0fff0fff0f5b129d
:100b4c00ff0fff0fff0fff0fff0fff0fff0fff0f29
:100b5c00ff0fff0fff0fff0f63124619b70db70df5
:100b6c0047104710ff0fff0fff0fff0fff0fff0f77
:100b7c00ff0fff0fff0fff0fff0fff0fff0fff0ff9
:100b8c00ff0fff0fff0fff0fff0fff0fff0fff0fe9
:100b9c00ff0f0d14960d3c0eff0fb70ed513280e3c
:100bac00280e150f5010e012360d360dff0fff0feb
:100bbc00ff0f27106512ff0fff0f530e530eff0f81
:100bcc0055105510ff0fff0f831b27148e13ff0fab
:100bdc00ff0fff0fff0fff0fff0fff0f3c128e12c7
:100bec00b712840fff0fff0fff0fff0fff0fff0f49
:100bfc00ff0fff0fff0fff0fff0fff0f840f791475
:100c0c001412ff0fff0fff0fff0fff0fff0fff0f50
:100c1c00ff0f0511ff0fff0fff0fff0fff0fff0f50
:100c2c00eb10ff0fff0fff0fff0fff0fff0fff0f5b
:100c3c00ff0fa210ff0fff0fff0fff0fff0fff0f94
:100c4c008f10ff0fff0fff0fff0fff0fff0fff0f97
:100c5c00ff0f5010ff0fff0f5010ff0fff0fff0f74
:100c6c00ff0fff0fff0fff0fff0fff0fff0fff0f08
:100c7c00ff0fff0fff0fff0fff0fff0fff0fff0ff8
:100c8c00ff0fff0fff0fff0fff0fff0fff0fff0fe8
:020000040000fa
:100c9c0080b592b012af002006f0bcfa05f018f83f
:100cac0006f0d4fe07f080f8bc4b0021180006f0cb
:100cbc00d9ffbb4b0021180006f0f8ffb94b0021ff
:100ccc00180006f0e1ffb84b0121180005f0c2fc3a
:100cdc00b64b0021180007f00df8b54b0021180099
:100cec0006f0f6ffb04b0121180005f0ebfcb14b00
:100cfc000021180007f010f8af4b0021180007f086
:100d0c001df8ae4b0021180007f02af806f046ff3c
:100d1c0006f030ff06f01aff8223da058c235b0005
:100d2c0080214902d1508223da058c235b004021bb
:100d3c00d1508223db059822042199508223db05b4
:100d4c0040229a618223da058a235b000221d1506a
:100d5c008223da058a235b0080210905d150822386
:100d6c00da058a235b0080214905d1508223da05fc
:100d7c008a235b0080214903d150012005f004fb3c
:100d8c008223da058c235b000221d150012005f06f
:100d9c00fbfa8223da058c235b0080210905d150f4
:100dac008223da058c235b0080214903d15001207a
:100dbc0005f0eafa06f0e2fd8223da058c235b00eb
:100dcc0080214905d150fa239b00180005f0dcfa6c
:100ddc00232300931823a8225821c82005f08cf84f
:100dec002021002005f084fbcc21fd2005f080fba8
:100dfc000221442005f07cfbfa239b00180005f02f
:100e0c00c3fa06f0e1ff0021002006f0e3fb6c4b77
:100e1c001b88dbb2013bd9b2302311930023109312
:100e2c0060230f9302230e93fe230d9303230c9345
:100e3c0047230b9342230a932323099300230893fc
:100e4c00812307931f2306933e23059300230493ca
:100e5c0000230393012302930023019300230093a7
:100e6c0055230022042002f0acf804f0e1fa04f05f
:100e7c00dffa60230193622300930b2300220021ed
:100e8c00002005f003f960230193422300931723fc
:100e9c0000220b21002005f0f9f860230193222396
:100eac000093232300221721002005f0eff8a32143
:100ebc00032006f0b0fb434b00221a708223da05a4
:100ecc0090235b00d358db090122134007d0fe228c
:100edc0092053d4b111c180003f07cfa06e0fe2233
:100eec0092053a4b111c180003f074fa05f05afce9
:100efc00374b1b78dbb2012b2ed0022b44d0002bae
:100f0c0047d1344b1b68f02b02d803f0cffd3fe0e8
:100f1c00304b1b68f02b15d92e4b1a68b4235b0091
:100f2c009a420fd82b4b1b68f12b08d103f07efc97
:100f3c00a321032006f06ffbc82005f025fa04f06e
:100f4c0005fd25e0234b1a68b4235b009a421fd998
:100f5c001f4b02221a701be08223da058c235b00e4
:100f6c0080214905d150c82005f00efa06f006fd87
:100f7c0006f0f4ffa321032006f04dfb164b0322d1
:100f8c001a7004f031ff04e0002002f045ff00e08d
:100f9c00c0460a2005f0f8f9aae7c046517e0000c9
:100fac001560000063810000f91500204167000006
:100fbc0073810000d17b0000c1580000f97b000058
:100fcc00fe150020fd150020bc060000dc00000012
:0c0fdc00fa150020d0150020e71b0020b3
:020000040000fa
:100fe800f0b58db000af2e23fb1800221a80102315
:100ff800fb1800221a601a71c74bbb6200237b6280
:1010080024e0bb6a1b782f2b11d9bb6a1b78392bbc
:101018000dd8bb6a1a787b6a591c7962303ad1b20a
:101028001022ba18d15402e0bb6a0133bb62bb6a12
:101038001b78002b03d0bb6a1b782c2bf4d1bb6a1e
:101048001b782c2b02d1bb6a0133bb62bb6a1b78ad
:10105800002b02d07b6a042bd3dd2e243b191a887f
:10106800ae4bd318ae4a1100180007f011f8030070
:1010780099b220003b183a1812888a181a8010234f
:10108800fb181b78012b00d06fe02223fb180022ed
:101098001a801823fb183a1812881a803b183a1835
:1010a800128802321a802023fb1800221a8042e09c
:1010b80020257b191b88a022d2019446634418007e
:1010c8000f26bb190122190004f05afbbb191b7823
:1010d800002b2ad07b191b88013319122e243b19a7
:1010e8001b883a19581c10801a00c9b28b4b9954a6
:1010f8007b191b88dab23b191b883919581c0880e0
:101108001900531cdab2854b5a543b191b883a19fb
:10111800591c11801a00bb191978804b9954222147
:101128007b181a887b1801321a8020217b181a88ac
:101138007b1801321a802023fb181a886823ff3392
:101148009a42b5d922203b181b881b0a9ab2182448
:101158003b191b88d1b2714ad1543b191b88013302
:101168003a181288d1b26d4ad1542e243b191a88e4
:101178006a4bd3186b4a1100180006f089ff030068
:1011880099b220003b183a1812888a181a8010233e
:10119800fb18db78012b00d097e01e23fb180022f8
:1011a8001a801623fb183a1812881a803b183a1826
:1011b800128802321a801c23fb1800221a806ae067
:1011c8001c23fb181b888022120194466344db0011
:1011d80018003b1d0822190004f0d2fa1b23fb1843
:1011e80000221a701a23fb1800221a7011e01a2321
:1011f800fb181b783a1dd35c002b04d01b23fb186b
:1012080001221a700ae01a217b181a787b18013219
:101218001a701a23fb181b78072be8d91b23fb1815
:101228001b78002b31d01c257b191b880133191220
:101238002e243b191b883a19581c10801a00c9b271
:10124800364b99547b191b88dab23b191b8839191c
:10125800581c08801900531cdab2304b5a543b19f9
:101268001a882e4bd2183b1d1000190008231a00ab
:1012780006f042ff3b193a19128808321a801e21db
:101288007b181a887b1801321a801c217b181a884f
:101298007b1801321a801c23fb181a886823ff3335
:1012a8009a428dd91e203b181b881b0a9ab2162415
:1012b8003b191b88d1b2194ad1543b191b880133f9
:1012c8003a181288d1b2154ad1542e243b191a88db
:1012d800124bd318144a1100180006f0d9fe030067
:1012e80099b220003b183a1812888a181a803b18bd
:1012f8001b883a18591c11801a00084b0d21995463
:101308003b181b88054a0021d1543b181b8818003c
:10131800bd460db0f0bdc046691300200000002096
:0c132800e4370000f0370000f43700004c
:020000040000fa
:1013340080b500af8223db05f42212011a608223f8
:10134400db05c84a1a618223db0540220221995435
:101354008223db054122022199548223db054522a5
:10136400012199548223db054622002199548223ca
:10137400db054722012199548223db054822002101
:1013840099548223db054922002199548223db05e9
:101394004a22002199548223db054b2200219954cf
:1013a4008223db054c22012199548223db054d2243
:1013b400012199548223db0554220221995482236a
:1013c400db055522022199548223db055622022192
:1013d40099548223db055722022199548223db0589
:1013e4005c22022199548223db0530220021995486
:1013f4008223db053222102199548223db05332218
:10140400102199548223db0534220021995482232c
:10141400db053522002199548223db053622222163
:1014240099548223db053a22002199548223db0557
:101434003b22002199548223db053e22002199544a
:101444008223db058022884999508223db05902280
:10145400864999508223db05c022002199548223b6
:10146400db05c122002199548223db05c22200211d
:1014740099548223db05ce22022199548223db0571
:10148400d022012199548223db05d12201219954d0
:101494008223db05d822002199548223db05d9223b
:1014a400002199548223db05de22012199548223f1
:1014b400db05df22012199548223db05b0220021c0
:1014c40099548223db05b122002199548223db0540
:1014d400b722002199548223db05b8222221995492
:1014e4008223db05bc22002199548223db05bf2221
:1014f400222199548223da0580235b005c49d15070
:101504008223da0588235b004021d1508223da0547
:10151400a0235b000221d1548223da054223ff3346
:101524000021d1548223da054423ff330021d1540e
:101534008223da05a3235b000021d1548223da0538
:101544004823ff330221d1548223da054a23ff338f
:101554000021d1548223da054c23ff330021d154d6
:101564008223da05a8235b000021d1548223da0503
:101574005223ff330021d1548223da05a9235b00cf
:101584000221d1548223da055423ff330021d1549c
:101594008223da05aa235b000021d1548223da05d1
:1015a400ac235b000021d1548223da055a23ff3394
:1015b4000221d1548223da05ad235b000221d154e8
:1015c4008223da055c23ff330021d1548223da0518
:1015d400ae235b000021d1548223da0598235b00fb
:1015e4000021d1548223da053223ff330021d15460
:1015f4008223da053423ff330021d1548223da0510
:101604009a235b000021d1548223da053623ff3369
:101614000021d1548223da059c235b000021d1549c
:101624008223da053a23ff330021d1548223da05d9
:101634009d235b000021d1548223da059e235b00a5
:101644000021d1548223da053e23ff330021d154f3
:101654008223da059f235b000021d154c046bd4696
:1016640080bdc046403000100700000305000001a3
:041674004a0a1b19ea
:020000040000fa
:101678000023f0b506001500b1b007910393079950
:101688000b78002b00d10ce101235b420c9310abcb
:1016980000240e9380230b940d940f930b5d002b65
:1016a80001d0252b2ad1002c06d02200300006f0cc
:1016b800fdf9079b1b190793079b1a78252a00d069
:1016c800e4e0013304930793022301219c46102789
:1016d800079803782b2b1ad025d8202b1ad0232b28
:1016e8001dd02a2b28d005f0d9ff0d90079b1a781a
:1016f800303a092a31d801330793f7e70134cde7a7
:101708000b9b05930b4301300b930790e0e70423f1
:101718000b9a0fe00b9b0593059a08230ae00b9b95
:1017280005933b43efe72d2bead0302bd9d1624606
:101738000b9b05931343e6e72b6801301a1d1b68c2
:1017480007902a600d93002b07da0b9a5b420592eb
:10175800012205990d934a400b920b9bda0702d59b
:10176800022293430b93079b1a782e2a0ed100224c
:10177800581c0c9207905a782a2a27d102330793cb
:101788002b681a1d1b682a6005930c9307a806f09e
:1017980011f9079b0700187806f005fd692800d1a4
:1017a80082e034dc632800d1dbe01adc252800d194
:1017b800e8e0612858d0049b012207930023524295
:1017c8000c920b930d9300930232e5e005f066ff4f
:1017d8000c90079b1a78303a092ad7d80133079317
:1017e800f7e7642860d06728e5dc2a00390008a8f4
:1017f80006f071f9002800d1afe0079b0ba95a1c2d
:1018080007921b7808aa300006f0f8fc3de0702823
:1018180000d17de016dc6e2800d197e06f28cad190
:101828002b000022390008a803f0cefa002800d1c6
:1018380093e0079b08aa01330ba93000079306f031
:10184800dbfc22e0752840d078284fd07328b2d12d
:10185800802f00d081e0079b2a6801330793131d6e
:101868002b601268002388e02a00390008a806f0d7
:1018780032f9002800d170e0079b0ba95a1c079287
:101888001b7808aa300006f0b9fc2418039b1c1921
:10189800a34200dc82e04f22414b1a6001235b42e5
:1018a8000393039831b0f0bd2b000122390008a83a
:1018b80003f08afa002850d0079b08aa01330ba925
:1018c8003000079306f098fcdfe72b000022390070
:1018d80008a803f079fa00283fd0079b08aa01332b
:1018e8000ba93000079306f087fccee72b000022f7
:1018f800390008a803f068fa00282ed0079b5a1c64
:1019080007921b7808aa0ba9300001f0bbfcbce7c2
:101918002b000022f02108a803f056fa00281cd05a
:10192800079b099a01330793089b13430cd11d4f5a
:10193800380006f069fb390002000b9b00930d9bf1
:10194800300004f0e5fca0e77823dbe7039b3900cf
:101958001a1908a82b0005f035f8079b01330793df
:1019680094e7802ff9d1079b013307932b681a1d41
:101978001b682a6008aa137001230ba9300005f020
:101988009bfc82e7802fe8d10122079b0133079354
:101998000b9b049300930d9b0349d1e703946ee6d8
:0c19a800f0150020e0810000e681000046
:020000040000fa
:1019b400b0b588b000af1e23fb1800221a801c2388
:1019c400fb1800221a801b217b1800221a701a238c
:1019d400fb1800221a70a64b3b613b6911331b783c
:1019e400322b03d17b1801221a7007e03b691133b3
:1019f4001b78312b02d19f4b00221a801e243b19e5
:101a04001a889d4bd3189d4a1100180006f042fb1a
:101a1400030099b220003b183a1812888a181a80d9
:101a24000e23fb183a1812881a803b183a181288a9
:101a340002321a801b23fb181b78002b02d08d4b1b
:101a44001a8800e000220c217b181a801823fb1846
:101a54007a1812881a8093e01823fb181b888022b6
:101a6400120194466344db0018003b1d0822190050
:101a740003f088fe1723fb1800221a701623fb18a4
:101a840000221a7011e01623fb181b783a1dd35c50
:101a9400002b04d01723fb1801221a700ae0162128
:101aa4007b181a787b1801321a701623fb181b78de
:101ab400072be8d91723fb181b78002b5ad01825bd
:101ac4007b191b88013319121e243b191b883a19f0
:101ad400581c10801a00c9b2674b99547b191b8893
:101ae400dab23b191b883919581c08801900531c99
:101af400dab2614b5a543b191a885f4bd2183b1d1a
:101b04001000190008231a0006f0f8fa3b193a19d4
:101b1400128808321a801c217b181a887b1801321b
:101b24001a801b23fb181b7801225340dbb2002bc5
:101b34000ed07b181b88b32b0ad91a23fb18012259
:101b44001a707b191b8801339ab24a4b1a801fe022
:101b54001e23fb181b884a4a93420bd91a23fb18ed
:101b640001221a701823fb181b8801339ab2414bc7
:101b74001a800de018217b181a887b1801321a800c
:101b84001823fb181a886823ff339a4200d863e7a6
:101b94001b23fb181b78002b07d11a23fb181b7877
:101ba40001225340dbb2002b04d01a23fb1800227d
:101bb4001a7003e01a23fb1801221a701c203b1828
:101bc4001b881b0a9ab20e243b191b88d1b22a4add
:101bd400d1543b191b8801333a181288d1b2264ad2
:101be400d1541a23fb181b78002b11d01e243b1947
:101bf4001a88214bd318234a1100180006f04afa18
:101c0400030099b23b193a1912888a181a8010e015
:101c14001e243b191a88184bd3181b4a11001800ac
:101c240006f038fa030099b23b193a1912888a1857
:101c34001a801e203b181b883a18591c11801a0060
:101c44000d4b0d2199543b181b880b4a0021d1548c
:101c54001b23fb181b78002b02d0064b00221a8092
:101c64001e23fb181b881800bd4608b0b0bdc04633
:101c740064130020ce15002000000020fc37000073
:0c1c8400bb0700000c380000f437000023
:020000040000fa
:101c9000b0b5e6b000aff860b9603b60a44bcc21b2
:101ca00049008c46bc4463441a80cb235b00fb187c
:101cb00000221a80ca235b00fb1800221a8023e04e
:101cc000ca2149007b181b88ba68d3181b78ff2be0
:101cd00013d07b181b88ba68d218cb2149007b1817
:101ce0001b887918581c088019001278914bcc2059
:101cf00040008446bc4463445a54ca2149007b18be
:101d00001a887b1801321a80ca235b00fa18884ba4
:101d1000cc2149008c46bc44634412881b889a42fb
:101d2000ced38023ff33fc18cb256d007b191a8896
:101d30001023fb181100180004f012ff0300237099
:101d4000be2149007b187a19128817321a807b1835
:101d5000d4225200b9181a880b889a4201d900235c
:101d6000e1e0c9235b00fb1800221a800023c62291
:101d70005200ba18136016e0c62464003b191b68b1
:101d8000fa68d218c92149007b181b887918581c99
:101d9000088019003b685b1812781a703b191b68a1
:101da00001333a191360c6235b00fb181b68032b31
:101db000e2dd614bbc225200ba1813600023c4223a
:101dc0005200ba18136019e0c42464003b191b6860
:101dd000bc225200ba181268d218c92149007b18d7
:101de0001b887918581c088019003b685b1812780a
:101df0001a703b191b6801333a191360c4235b0046
:101e0000fb181b68052bdfddc92040003b181b8831
:101e10003a18591c11801a003b689b1801221a704d
:101e20003b181b883a18591c11801a003b689b18f4
:101e3000cb2149007a181288d2b21a707b181b88fd
:101e40001b0a99b23b181b883a18581c10801a00bc
:101e50003b689b18cab21a70c3235b00fb180022b0
:101e60001a801ae0c32464003b191a88c92149006a
:101e70007b181b887918581c088019003b685b1870
:101e80002c49cc2040008446bc4461448a5c1a70d2
:101e90003b191a883b1901321a80c3235b00fa18d8
:101ea000cb235b00fb1812881b889a42dad3c92225
:101eb0005200bb181b88ba18591c11801a003b68c5
:101ec0009b188022ff32ba1812781a700023c022a1
:101ed0005200ba18136012e0c9225200bb181b88c6
:101ee000ba18591c11801a003b689b182c221a70d2
:101ef000c0225200bb181b680133ba181360c023fc
:101f00005b00fb181b68072be6ddc92040003b186f
:101f10001b883a18591c11801a003b689b180d2227
:101f20001a703b181b881800bd4666b0b0bdc0468d
:0c1f30006efeffff78feffffb8370000d8
:020000040000fa
:101f3c0080b584b000af78600023bb600f23fb1822
:101f4c0000221a707b680421180002f001fc8b4bf4
:101f5c00db781a06894b9b781b041a43874b5b78fa
:101f6c001b021343854a12781343bb607b68844a77
:101f7c00934231d07b68824a93420dd87b68814a68
:101f8c00934231d07b68804a93421cd07b687f4a55
:101f9c00934200d19ae0e4e07b687d4a934200d101
:101fac0085e07b687a4a934204d87b68794a9342ed
:101fbc0023d0d6e07b68784a93426ad07b68774a14
:101fcc0093426cd0cde0bb681b0cdab20f23fb182c
:101fdc003f210a401a70c9e0bb68dab20f23fb1824
:101fec0007210a401a70c1e0bb685b0fdab20f23fd
:101ffc00fb1801210a401a70b8e0bb681b0edbb25b
:10200c00db01dab2bb681b0ddbb29b01dbb24021fa
:10201c000b40dbb21343dab2bb681b0cdbb25b01c7
:10202c00dbb220210b40dbb21343dab2bb685b0b93
:10203c00dbb21b01dbb210210b40dbb21343dab273
:10204c00bb681b0bdbb2db00dbb208210b40dbb245
:10205c001343dab2bb68db0adbb29b00dbb20421b0
:10206c000b40dbb21343dab2bb689b0adbb2db1862
:10207c00dbb202210b40dbb21343d9b2bb681b0aa3
:10208c00dbb201221340dab20f23fb180a431a7099
:10209c006ce0bb685a0e0f23fb181a7066e0bb6825
:1020ac00dab20f23fb181f210a401a705ee0bb68de
:1020bc009b0fdbb2db18d9b2bb68dbb20122134039
:1020cc00dab20f23fb180a431a704fe0bb68db0b24
:1020dc00dbb2db01dab2bb685b0bdbb29b01dbb2c0
:1020ec0040210b40dbb21343dab2bb68db09dbb235
:1020fc005b01dbb220210b40dbb21343dab2bb68cd
:10210c009b09dbb21b01dbb210210b40dbb213438a
:10211c00dab2bb685b09dbb2db00dbb208210b4037
:10212c00dbb21343dab2bb681b09dbb29b00dbb238
:10213c0004210b40dbb21343dab2bb689b08dbb261
:10214c00db18dbb202210b40dbb21343d9b2bb6804
:10215c00dbb201221340dab20f23fb180a431a70c8
:10216c0004e00f23fb1800221a70c0460f23fb1843
:10217c001b781800bd4604b080bdc0469c150020dd
:10218c008c2100505c2100508821005060000050d0
:10219c005c220050582200506422005068220050eb
:020000040000fa
:1021ac00b0b58ab000af78600a00fb1c1a70272308
:1021bc00fb18ff221a701be12623fb1800221a7051
:1021cc0025e07b681b781a0026203b181b781a41e7
:1021dc001300dab23b181b7801210a40d1b21c2241
:1021ec00ba18d1542723fb181a783b181b781a41bc
:1021fc001300dab23b181b7801210a40d1b20c2231
:10220c00ba18d1543b181a783b1801321a7026258b
:10221c007b191b78072bd4d97b6801337b601c247a
:10222c003b19da790c203b18db795340dab21421d4
:10223c007b181a703b199a793b189b795340dab288
:10224c007b185a703b195a793b185b795340dab2b8
:10225c007b189a703b191a793b181b795340dab2e8
:10226c007b18da703b19da783b18db785340dab21a
:10227c007b181b785340dab27b181a713b199a7889
:10228c003b189b785340dab27b181b785340dab278
:10229c007b185b785340dab27b185a713b195a7829
:1022ac003b185b785340dab27b181b785340dab298
:1022bc007b185b785340dab27b189b785340dab2c8
:1022cc007b189a713b191a783b181b785340dab279
:1022dc007b185b785340dab27b189b785340dab2a8
:1022ec007b18db785340dab27b18da717b181a78da
:1022fc007b189b785340dab27b18db785340dab208
:10230c007b181b795340dab23b18da717b185a7878
:10231c007b18db785340dab27b181b795340dab266
:10232c007b185b795340dab23b189a717b189a7818
:10233c007b181b795340dab27b185b795340dab2c5
:10234c007b189b795340dab23b185a717b18da78b8
:10235c007b185b795340dab27b189b795340dab225
:10236c007b18db795340dab23b181a717b181a7957
:10237c007b189b795340dab27b18db795340dab285
:10238c003b18da707b185a797b18db795340dab238
:10239c003b189a707b189a793b185a707b18da792b
:1023ac003b181a702723fb1800221a707b19002285
:1023bc001a7018e026217b181b780c22ba18d35cf3
:1023cc001a007b181b789a4013005ab227203b182e
:1023dc001b785bb213435ab23b181a707b181a78ed
:1023ec007b1801321a702623fb181b78072be1d9b6
:1023fc00fb1c1b78fa1c591e1170002b00d0dbe65d
:0e240c002723fb181b781800bd460ab0b0bd90
:020000040000fa
:02241a00fee7db
:020000040000fa
:10241c0080b584b000af8e4b9b7ddbb2002b00d11e
:10242c0012e18c4b9b6afb60894b5b8b9bb21a0055
:10243c0002231340022b08d1864b2022ff219954f2
:10244c00844b212202219954b7e0814b5b8b9bb2c8
:10245c001a0001231340012b08d17e4b2022ff21af
:10246c0099547c4b212202219954a6e0784b5b8b2a
:10247c009bb21a0004231340042b08d1754b202265
:10248c00ff219954734b21220121995495e0714bf2
:10249c0020229b5c5bb2022b09d003dc002b00d109
:1024ac008ae08ae0032b59d0042b14d085e0694bc9
:1024bc001b69002b07d0674b9b889bb2002118002f
:1024cc0004f0dafb79e0634b9b889bb20121180086
:1024dc0004f0d2fb71e05f4b9b69bb605d4b1b69e9
:1024ec00ba689a4226d15b4b5b69002b11d0594bd1
:1024fc009b889bb25a00564b01210a435a62c04634
:10250c00534bdb69002bfbd1524b202203219954f6
:10251c0053e04f4b5a684e4bc02189020a435a6014
:10252c00c0464b4bdb69002bfbd14a4b20220621ca
:10253c00995442e0474b9a68bb68d318444a1978bf
:10254c002823d154bb680133bb60c046404bdb69c8
:10255c00002bfbd13f4bba689a612ee03d4bdb69f7
:10256c007b603c4b5b69013b7a689a420fd1384bdc
:10257c005a68374be021c9020a435a60c046344bb3
:10258c00db69002bfbd1334b202206219954c0462a
:10259c002f4bdb69002bfbd12d492e4bda687b6866
:1025ac00d31828228a5cd2b21a707b6801337b6004
:1025bc00284b7a68da6100e0c046264b20229b5cef
:1025cc005bb201331cd1234b202200219954204ba8
:1025dc005a681f4bc02189020a435a60c0461c4be3
:1025ec00db69002bfbd11a4b83221a76194b5b6ae1
:1025fc00002b29d0174b5b6afa681000984723e030
:10260c00144b20229b5c5bb2062b1dd1114b20225c
:10261c00002199540f4b2122002199540c4b8322f9
:10262c001a76c0460a4b5b8b9bb21a0030231340c0
:10263c00102bf7d1074b5b6a002b05d0054b5b6a5f
:10264c00fa6810009847c046c046bd4604b080bd2d
:08265c000018004214150020d3
:020000040000fa
:10266400f0b5abb000aff860b9607a601a00bb1c7b
:102674001a80fb68002b06d07b68002b03d0bb1ca0
:102684001b881f2b02d801235b4205e10023a424ed
:102694003a1913603b191b687a68d318f968042245
:1026a400180005f02bfd21007b181b6804337a18f1
:1026b40013607b181b685a1c781802601a007b6828
:1026c4009b182c221a700c007b181b687a68d3188c
:1026d40073490422180005f011fd21007b181b68c2
:1026e40004337a1813607b181b685a1c79180a6023
:1026f4001a007b689b182c221a70b96814243b19a1
:102704007f22180005f05ffd3b197f2200219954b8
:102714000023a022ba1813601de014217a18a02007
:102724003b181b68d3181b780d2b06d07a183b185e
:102734001b68d3181b780a2b07d11423fa18a0237b
:10274400fb181b68d31800221a70a022bb181b6840
:102754000133ba18136014243b19180005f056fc11
:102764000200a023fb181b689a42d6d84d4a3b1995
:102774001100180004f07afd03009c22ba181360bb
:1027840002239822ba18136044e09c23fb181b68a8
:10279400180005f03bfc030094217a181360a4236d
:1027a400fb181a687b181b68d3185a1cbb1c1b889f
:1027b4009a4202db02235b426ee0a4243b191b68ad
:1027c4007a68d31894257a1912689c26b91909686d
:1027d400180005f093fc3b191a687b191b68d31881
:1027e4003a1913603b191b685a1c39190a601a00fc
:1027f4007b689b182c221a702a4b1900002004f0c5
:1028040035fd0300ba1913609822bb181b68013305
:10281400ba1813609c23fb181b68002b20d0982344
:10282400fb181b68082bb0dd1ae0bb1c1b88a42214
:10283400ba1812689a4202db03235b422ce0a421fb
:102844007b181b685a1c79180a601a007b689b184d
:102854002c221a709822bb181b680133ba18136013
:102864009823fb181b68082bdfddbb1c1b88a422e4
:10287400ba1812689a4202db04235b420ce0a421da
:102884007b181b685a1c781802601a007b689b1816
:102894000d221a707b181b681800bd462bb0f0bdc2
:0828a400c0370000c837000036
:020000040000fa
:1028ac00f0b5cfb002af0200684b982149008c46be
:1028bc00bc4463441a7097256d007c19052004f004
:1028cc0068fe030023807b191b88180005f07efb33
:1028dc005f4a604b00f0ccfa03000c00180021009a
:1028ec0000225d4b02f0acf903000c001800210033
:1028fc0004f061f9021c594b1a6096256d007c1985
:10290c00072004f046fe030023807b191b88180067
:10291c0005f05cfb4e4a4f4b00f0aafa03000c008a
:10292c001800210000224c4b02f08af903000c0025
:10293c001800210004f03ff9021c494b1a60474b68
:10294c001b684849181c02f00efc031c4649181c55
:10295c0003f074f9031c4549181c03f06ff9031cb0
:10296c00942464003a1913603d4b1b683d49181cb4
:10297c0002f0f9fb031c3e49181c03f05ff9031c21
:10298c003c49181c03f05af9031c92256d007a1966
:10299c00136039493b19186802f0e5fb031c242627
:1029ac00ff36bc19181c05f0edf9030023703349f0
:1029bc007b19186802f0d7fb031c91256d007c195c
:1029cc00181c05f0dff9030023707b191978bb196b
:1029dc001b782b4a0c24381900930b00102105f09e
:1029ec004afb80235b001c257a1939192548fff70f
:1029fc0033fe03008e225200b9180b60134b982142
:102a0c0049008c46bc4463441b78012b07d1bb188e
:102a1c001a687b191100180002f0eefa12e00b4b49
:102a2c00982252009446bc4463441b78002b09d175
:102a3c008e235b00fb181a681c23fb18110018006e
:102a4c0002f07efac046bd464db0f0bdd7feffff8a
:102a5c006666666666660a4000feaf40dc150020be
:102a6c00e0150020002474490040ce440000364399
:102a7c0000400345000076430000ff428fc2244211
:082a8c00cc37000064370000a4
:020000040000fa
:102a940080b592b012af8223da058c235b008021cb
:102aa4004902d1508223da058c235b004021d150a6
:102ab4008223db059822042199508223db054022de
:102ac4009a618223da058a235b000221d150822392
:102ad400da058a235b0080210905d1508223da05b7
:102ae4008a235b0080214905d1508223da058a2399
:102af4005b0080214903d150012003f049fc82236b
:102b0400da058c235b000221d150012003f040fc44
:102b14008223da058c235b0080210905d1508223ae
:102b2400da058c235b0080214903d150012003f096
:102b34002ffcfa239b00180003f02afc23230093a4
:102b44001823a8225821c82003f0daf920210020f4
:102b540003f0d2fccc21fd2003f0cefc0221442062
:102b640003f0cafcfa239b00180003f011fc05f0e3
:102b74002ff90021002004f031fd394b1b88dbb212
:102b8400013bd9b2302311930023109360230f9398
:102b940002230e93fe230d9303230c9347230b93dd
:102ba40042230a9323230993002308938123079341
:102bb4001f2306933e2305930023049300230393ca
:102bc4000123029300230193002300935523002241
:102bd400042000f0faf902f02ffc02f02dfc60232f
:102be4000193622300930b2300220021002003f0b1
:102bf40051fa6023019342230093172300220b21ef
:102c0400002003f047fa6023019322230093232337
:102c140000221721002003f03dfaa321032004f031
:102c2400fefc104b00221a708223da0590235b000d
:102c3400d358db090122134007d0fe2292050a4b28
:102c4400111c180001f0cafb06e0fe229205074b96
:102c5400111c180001f0c2fbc046bd4680bdc04631
:102c6400fe150020fd150020bc060000dc0000005d
:020000040000fa
:102c7400681500201c00000000000000141500204e
:102c84002c00000000000000b414002060000000cc
:102c940000000000841500200c000000000000006b
:102ca400a81500201800000000000000d015002026
:102cb4000400000000000000f915002001000000dd
:102cc4000000000064130020000100000000000068
:102cd400a61500200200000000000000e61b0020f2
:102ce400010000000100000001000000d4150020d4
:102cf4000800000000000000fa1500200100000098
:102d040000000000c4090020d00200000000000000
:102d1400fb1500200100000000000000e71b00205c
:102d2400020000000100000003ff0000dc15002089
:102d3400080000000000000000000020c40900009a
:102d440000000000640f00200004000000000000e8
:102d5400940c0020d002000000000000ce150020da
:102d640002000000000000009c1500200a00000082
:102d740000000000c815002006000000000000004c
:102d8400fc150020010000000000000000160020d7
:102d9400e00500000200ff0ffe1500200200000005
:102da400010000002f000000e41b002002000000ce
:102db40001000000f002000040150020280000007f
:102dc40000000000c0150020080000000000000002
:102dd400f81500200100000000000000fd1500208f
:102de4000100000000000000e41500200c000000b9
:102df40000000000e01b00200400000001000000af
:102e040001000000f0150020040000000000000094
:102e1400641400205000000000000000f41500209d
:102e24000400000000000000901500200c000000c9
:102e340000000000000000000000000066666666f6
:020000040000fa
:102e440008d1002806d1f54204d801d3002a01d1c3
:102e54006d0d09d10020c143090dc904f0bdf9d19c
:102e64001242f7d1640df5d00020c1434905490849
:102e7400a6e000206146f0bdf0b50127ff070e0073
:102e84005e403e40b446be0a4c18dd18f442d7d228
:102e9400f542e4d2640decd06d0dead06419c90298
:102ea4003943460dc0023143db023b43db0a10b415
:102eb4008e4685b297b26f43140c6c433e0ca41932
:102ec400260c2404bfb227439cb26c43a419190cea
:102ed4006943250ca4b249190d04090c6419000caa
:102ee40095b245433e0c76193743bfb2360c150ce8
:102ef4004543ad19a6b2240cad192e0437432e0c4c
:102f040036199db24543ad19acb22e0c89191d0c6e
:102f140045436d182e04290c3443704680b295b293
:102f240045433e0c76193743bfb2360c150c454366
:102f3400ad19a6b2ad19240c2e0437432e0c361944
:102f44009db24543ad19acb22e0c89191d0c4543f5
:102f54006d182e043443290c75462d0c90b2684329
:102f64003e0c80190604bfb23e43070ca0b23f18c2
:102f7400120c6a43d019020c80b2240ca4189ab221
:102f84006a43121914042043120c89181b0c6b4356
:102f9400c91810bc01273d05294203d1b619404187
:102fa4004941013cff077d0d013d641b0bdb6d00b6
:102fb400ac4209da240500254208be41684161415a
:0a2fc40066463143f0bd54e74ee7c6
:020000040000fa
:102fce00b0b582b000af05000c0010001900fb1d5b
:102fde002a1c1a70bb1d221c1a707b1d021c1a7033
:102fee003b1d0a1c1a7005f024f8552002f045fd11
:102ffe00202002f042fdfb1d1b78180002f03dfd63
:10300e00bb1d1b78180002f038fd7b1d1b781800c5
:10301e0002f033fd3b1d1b78180002f02efd182325
:10302e00fb181b78180002f028fd1c23fb181b78d8
:10303e00180002f022fd2023fb181b78180002f066
:10304e001cfd2423fb181b78180002f016fd282304
:10305e00fb181b78180002f010fd2c23fb181b78b0
:10306e00180002f00afd3023fb181b78180002f03e
:10307e0004fd3423fb181b78180002f0fefc2023fd
:10308e0018229446bc4463441b78180002f0f5fce9
:10309e00242318229446bc4463441b78180002f083
:1030ae00ecfc282318229446bc4463441b78180079
:1030be0002f0e3fc2c2318229446bc4463441b7894
:1030ce00180002f0dafc302318229446bc44634404
:1030de001b78180002f0d1fc342318229446bc440d
:1030ee0063441b78180002f0c8fc3823182294465b
:1030fe00bc4463441b78180002f0bffc3c2318222a
:10310e009446bc4463441b78180002f0b6fc40237e
:10311e0018229446bc4463441b78180002f0adfca0
:10312e00442318229446bc4463441b78180002f0d2
:0e313e00a4fc04f070fcc046bd4602b0b0bd5b
:020000040000fa
:10314c00f0b58bb000af0200bb1d1a8026257c1990
:10315c00052004f01efa030023807b191b8818003d
:10316c0004f06cfd031c3e49181c01f0fcff031c11
:10317c008b21c905181c02f061fd031c3b621e2546
:10318c007c19072004f005fa030023807b191b88a7
:10319c00180004f053fd031c3149181c01f0e3ff27
:1031ac00031c8b21c905181c02f048fd031cbb61d4
:1031bc002c49386a01f0d7ff031c2b49181c02f06c
:1031cc003dfd031c2949181c02f038fd031c7b61d2
:1031dc002449b86901f0c7ff031c2549181c02f0eb
:1031ec002dfd031c2349181c02f028fd031c3b6118
:1031fc002149786901f0b7ff031c0e257c19181cb6
:10320c0004f0c0fd030023801c49386901f0abffba
:10321c00031c0c26bc19181c04f0b4fd03002380fd
:10322c00bb1d1b88d4225201944663445b001a00d8
:10323c007b191b881900100004f0b4f8bb1d1b8807
:10324c00c0225201944663445b001a00bb191b88d0
:10325c001900100004f0a6f8c046bd460bb0f0bd36
:10326c0033335340002474490040ce4400003643ad
:10327c00004003450000764300ffff46f66c2546f0
:020000040000fa
:10328c00f0b58fb00d934b680c9006938b680d00c6
:10329c000793cb6816000393069b0f68002b44db47
:1032ac0002239f4310233b400a93079b04930a9be2
:1032bc00002b07d0726833681343079a02d01300af
:1032cc00023b049308233b400b935a1e9341049af0
:1032dc00d31a04933368039a0893736809932b6980
:1032ec005c1e00231355069b0593012c20dc0a9bc6
:1032fc00002b51d10b9b002b03d02023039a013cb4
:10330c0013552b6900975a1e039b121b19190c9805
:10331c00079b02f0fbff0c9b5b68db0503d56b681e
:10332c00984200da18000fb0f0bd01230693b9e7fc
:10333c00089b099a13430bd1059b002b08dc069aba
:10334c00049b9b1a059a9b18002bd0ddbb07ced58e
:10335c000f23089a013c134018005730092b01dc4d
:10336c00303318000d9b413b192b06d82023034307
:10337c00613b192b01d804f01bff039b1855059bcf
:10338c00013b0593099b1a07089b1b091a43099bd0
:10339c0008921b090993a8e70cce1343aad0039bf0
:1033ac000d9a1b19013b1a703023039a023c1355da
:0233bc00a0e788
:020000040000fa
:0233be00704756
:020000040000fa
:1033c00090b5c7b000af0200424b8c2149008c463b
:1033d000bc4463441a70404b882149007a1813603a
:1033e00080235b0008243a19791809683b48fff7e5
:1033f00039f9030086225200b9180b60354b8c2135
:1034000049008c46bc4463441b78012b07d1bb1890
:103410001a683b191100180001f0f4fd12e02d4b61
:103420008c2252009446bc4463441b78002b09d183
:1034300086235b00fb181a680823fb18110018008c
:1034400001f084fd00238a2040003a1813600c210b
:10345000ff317b18224a52791a700a00bb181b7878
:103460002f2b08d9bb181b78392b04d8bb181b7815
:10347000303b3a1813608a225200bb181b68062b97
:1034800022d8bb181b689a00164bd3181b689f469e
:10349000154b04221a7018e0134b01221a7014e025
:1034a000114b02221a7010e00f4b03221a700ce02d
:1034b0000d4b00221a7008e00b4b05221a7004e035
:1034c000094b06221a7000e0c046c046bd4647b010
:1034d00090bdc046effeffff803700004c37000074
:0c34e00064130020887e0000e71b002021
:020000040000fa
:1034ec00f0b53a4ca54402af0200394b8221c90019
:1034fc008c46bc4463441a70364b8222d2009446ec
:10350c00bc446344180080235b001a00002104f0c3
:10351c00fbfd80235a00c225ad007b191100180059
:10352c0000f0fafc2c4b2d4c3a1913602c4b8222d8
:10353c00d2009446bc446344180080239b001a00bc
:10354c00002104f0e1fd3b191c68264a80239900f8
:10355c0084267600b8197b190093230004f08bfda8
:10356c0080235b0008243a19b9191f48fff774f837
:10357c0003008122d200b9180b60154b8221c900bf
:10358c008c46bc4463441b78012b07d1bb181a68ca
:10359c003b191100180001f02ffd12e00c4b822298
:1035ac00d2009446bc4463441b78002b09d1812380
:1035bc00db00fb181a680823fb181100180001f037
:1035cc00bffcc046bd46094b9d44f0bde4fbffff6c
:1035dc00f7fbfffff8feffff803700000c04000034
:1035ec00f8fcffff9437000034370000140400008f
:020000040000fa
:1035fc0080b588b000af0200fb1d1a700823fb18c1
:10360c0000221a601a713c4b2c21180004f086fd24
:10361c000300fb61fb69002b00d168e0fb690133ff
:10362c00fb610023bb611de0fb691b78002b1dd0e7
:10363c00fb691b78303bd9b20823fa18bb69d31845
:10364c000a1c1a70fb692c21180004f067fd03009a
:10365c00fb61fb69002b0bd0fb690133fb61bb6980
:10366c000133bb61bb69042bdedd02e0c04600e028
:10367c00c0460823fb181b78012b19d1fdf7aefcb3
:10368c0003007b61fb1d1b78012b06d17a691b4b58
:10369c001100180001f0b0fc2ae0fb1d1b78002b78
:1036ac0026d17a69154b1100180001f049fc1fe076
:1036bc000823fb18db78012b1ad1fef775f90300f0
:1036cc003b61fb1d1b78012b06d13a690b4b11009a
:1036dc00180001f091fc0be0fb1d1b78002b07d1af
:1036ec003a69064b1100180001f02afc00e0c046b4
:1036fc00bd4608b080bdc046641300200000002009
:020000040000fa
:10370c00444c44520000c046534c45500000c04647
:10371c00574b55500000c046434b41560000c04625
:10372c005354534e0000c0464754534e0000c046fd
:10373c00535441530000c046475441530000c04607
:10374c00435450540000c046474454430000c04604
:10375c00455244430000c046434b50430000c04612
:10376c00444c43520000c046444c45520000c046f5
:10377c00444c44520000c046424d575f43313639e9
:10378c005f59312e322e3000257325730000c04650
:10379c003000c0463100c0463200c0462530345897
:1037ac000000c04625732c257300c0462c4f4b30af
:1037bc00302c00004f4b30300000c0462c00c0466f
:1037cc00253032582c2530325800c046444c4352d8
:1037dc002c4f4b30302c0000444c45522c4f4b306e
:1037ec00302c00002c2c2c002c2c2c312c00c04606
:1037fc00444c45522c4f4b30302c2c2c2c00c046ba
:08380c002c2c2c302c00c046ce
:020000040000fa
:1038140080b582b000af3e4b9b7ddbb2002b00d164
:1038240071e03b4b1b7edbb21a0080231a40fb1d68
:10383400803a51424a411a70354b9b7ddbb21a00e3
:1038440080231340802b05d1fb1d1b78002b01d056
:10385400012200e00022fb1d1a701a7801210a409f
:103864001a70fb1d1b78002b01d003f039fa284b8a
:103874001b7edbb21a0001231a40fb1d013a5142a0
:103884004a411a70224b9b7ddbb21a00012313407c
:10389400012b05d1fb1d1b78002b01d0012200e078
:1038a4000022fb1d1a701a7801210a401a70fb1db0
:1038b4001b78002b01d000f0b3f9154b1b7edbb253
:1038c4001a0004231a40fb1d043a51424a411a705b
:1038d4000f4b9b7ddbb21a0004231340042b05d14c
:1038e400fb1d1b78002b01d0012200e00022fb1df0
:1038f4001a701a7801210a401a70fb1d1b78002bdc
:1039040001d001f0e9fcc046bd4602b080bdc0460e
:04391400000c004261
:020000040000fa
:1039180080b582b000af3e4b9b7ddbb2002b00d15f
:1039280071e03b4b1b7edbb21a0080231a40fb1d63
:10393800803a51424a411a70354b9b7ddbb21a00de
:1039480080231340802b05d1fb1d1b78002b01d051
:10395800012200e00022fb1d1a701a7801210a409a
:103968001a70fb1d1b78002b01d003f0e7f9284bd8
:103978001b7edbb21a0001231a40fb1d013a51429b
:103988004a411a70224b9b7ddbb21a000123134077
:10399800012b05d1fb1d1b78002b01d0012200e073
:1039a8000022fb1d1a701a7801210a401a70fb1dab
:1039b8001b78002b01d000f0b1f9154b1b7edbb250
:1039c8001a0004231a40fb1d043a51424a411a7056
:1039d8000f4b9b7ddbb21a0004231340042b05d147
:1039e800fb1d1b78002b01d0012200e00022fb1deb
:1039f8001a701a7801210a401a70fb1d1b78002bd7
:103a080001d001f0bffcc046bd4602b080bdc04633
:043a18000008004260
:020000040000fa
:103a1c0080b584b000af0200fb1d1a70bb1d0a1ce0
:103a2c001a700e23fb186b221a700d23fb186b22d5
:103a3c001a700f23fb1800221a700ae00f203b1893
:103a4c001b78334a0021d1543b181a783b180132a9
:103a5c001a700f23fa18bb1d12781b789a42edd3fb
:103a6c0008217b18ff221a707b1800225a70c0465e
:103a7c000e23fb181b789bb20822b91802221800df
:103a8c0003f02cff03001a0001235340dbb2002b80
:103a9c00eed1c04603f03afd031efbd10823fb1800
:103aac00fa1d12781a70c0460e23fb181b789bb2b5
:103abc000822b9180122180003f010ff03001a00a5
:103acc0001235340dbb2002beed1c04603f01efda8
:103adc00031efbd1c0460d23fb181b7898b2bb1def
:103aec001a780b4b190003f089fe03001a0001230e
:103afc005340dbb2002beed1c04603f007fd031e92
:103b0c00fbd10a2002f040fcc046bd4604b080bd8b
:043b1c009c150020d4
:020000040000fa
:103b200090b58bb000aff86008007a6019000a24e5
:103b30003b19021c1a8008203b180a1c1a80384bbb
:103b4000fb610a23bb6107237b6100237b62bb6ba4
:103b5000002b11d03b191a88bb69d3185a1c3b188b
:103b60001b88d2187b69d218342308218c46bc44a8
:103b700063441b889a4202db01235b424ce07b6a70
:103b8000ba6bd318ba69f969180004f0b9fa7a6afd
:103b9000bb69d3187b627b6aba6bd0180a243b19c5
:103ba0001a88fb68190004f0abfa3b191b887a6a83
:103bb000d3187b627b6a5a1c7a621a00bb6b9b1813
:103bc0002c221a707b6aba6bd01808243b191a8809
:103bd0007b68190004f094fa3b191b887a6ad318a1
:103be0007b6200233b620ae07b6a5a1c7a621a00fd
:103bf000bb6b9b182c221a703b6a01333b623a6afa
:103c00007b699a42f0db7b6a5a1c7a621a00bb6bb2
:103c10009b180d221a707b6a1800bd460bb090bd30
:043c2000d837000091
:020000040000fa
:103c240080b584b000af3c4b1b7ddbb2002b6ed063
:103c3400394b9b68bb60384b5a680e23fb18b96834
:103c44009142924152421a70344b1b7edbb21a00ed
:103c540001231a400f23fb18013a51424a411a70ba
:103c64002ee02e4b5b6807221340012b08d02a4b11
:103c74001a68bb68d3181a78284b92b21a8507e0e1
:103c8400254b1a68bb685b00d318244a1b8813852c
:103c9400bb680133bb60204b5a680e23fb18b9681c
:103ca4009142924152421a701c4b1b7edbb21a00a5
:103cb40001231a400f23fb18013a51424a411a705a
:103cc4000f23fb181b78002b04d00e23fb181b7842
:103cd400002bc6d1104bba689a600f4b5b68ba6868
:103ce4009a4214d30c4b00221a750b4b00225a60d3
:103cf4000a4b01221a75084bdb68002b07d0064bd0
:103d04001b697b60044bdb687a6810009847c046e7
:103d1400bd4604b080bdc046b4140020000c00426f
:020000040000fa
:103d240080b584b000af3c4b1b7ddbb2002b6ed062
:103d3400394b9b68bb60384b5a680e23fb18b96833
:103d44009142924152421a70344b1b7edbb21a00ec
:103d540001231a400f23fb18013a51424a411a70b9
:103d64002ee02e4b5b6807221340012b08d02a4b10
:103d74001a68bb68d3181a78284b92b21a8507e0e0
:103d8400254b1a68bb685b00d318244a1b8813852b
:103d9400bb680133bb60204b5a680e23fb18b9681b
:103da4009142924152421a701c4b1b7edbb21a00a4
:103db40001231a400f23fb18013a51424a411a7059
:103dc4000f23fb181b78002b04d00e23fb181b7841
:103dd400002bc6d1104bba689a600f4b5b68ba6867
:103de4009a4214d30c4b00221a750b4b00225a60d2
:103df4000a4b01221a75084bdb68002b07d0064bcf
:103e04001b697b60044bdb687a6810009847c046e6
:103e1400bd4604b080bdc046e41400200008004242
:020000040000fa
:103e240080b582b000af0200fb1d1a7003f0d0ff12
:103e3400a321032003f0f3fb354b00221a6004e0b6
:103e4400344b1b78dbb2012b56d0314b1b68bd2b96
:103e5400f6d904f033f82e4b00221a601ae0fb1d49
:103e64001b78002b11d02a4b1b68b42b0dd12a4b85
:103e74001b689bb21800fff767f9b4239a0027491f
:103e8400c0239b01180001f07dfc224b1b78dbb2a0
:103e9400012b33d01e4b1b68bd2be0d904f01cf85a
:103ea4001b4b00221a6004e01a4b1b78dbb2012b77
:103eb40026d0174b1b68bd2bf6d904f01bf8144b06
:103ec40000221a6004e0134b1b78dbb2012b19d0db
:103ed4000f4b1b68c22bf6d904f01af80c4b0022c6
:103ee4001a6004e00b4b1b78dbb2012b0cd0084b9f
:103ef4001b68bd2bf6d908e0c04606e0c04604e0c6
:103f0400c04602e0c04600e0c046bd4602b080bde7
:103f1400d4150020fa150020d0150020c409002073
:020000040000fa
:103f240090b5c5b000af78600a003a4b88214900cb
:103f34008c46bc4463441a807b68002b66d0354ba6
:103f4400882252009446bc4463441b88002b5dd0f5
:103f5400314b882252009446bc44634418008023a9
:103f64005b001a00002104f0d3f880235a000c23cc
:103f7400f91880235b01180001f004fc87235b001f
:103f8400fb1800221a802ae0872040003b181b8877
:103f9400214a882149008c46bc446244d35c002bee
:103fa4002bd03b181b881c4a882149008c46bc44f2
:103fb4006244d35cff2b20d03b181a883b181b8823
:103fc4007968cb18144988246400a446bc4461442d
:103fd4008a5c1a703b181a883b1801321a808723ae
:103fe4005b00fb181a880b4b882149008c46bc44a3
:103ff40063441b88013b9a42c6db87235b00fb18a2
:104004001b887a68d31800221a7000e0c046bd46a7
:0c40140045b090bdf2fefffffcfeffff78
:020000040000fa
:1040200090b5c7b000af0200364b8c2149008c46da
:10403000bc4463441a7000238a2040003a1813607d
:104040001421ff317b18304a52791a700a00bb18cc
:104050001b782f2b08d9bb181b78392b04d8bb1819
:104060001b78303b3a1813608a225200bb181b6839
:10407000002b04d0bb181b68012b04d007e0234b96
:1040800000221a7003e0214b01221a70c046204b17
:10409000862149007a18136080235b0008243a19ae
:1040a000791809681b48fef7ddfa030084225200e4
:1040b000b9180b60134b8c2149008c46bc446344f7
:1040c0001b78012b07d1bb181a683b191100180087
:1040d00000f098ff12e00b4b8c2252009446bc4437
:1040e00063441b78002b09d184235b00fb181a68fa
:1040f0000823fb181100180000f028ffc046bd4639
:1041000047b090bdeffeffff64130020fa150020ba
:08411000803700003c3700007d
:020000040000fa
:1041180090b585b000af786039600e217b18384ab9
:1041280012881a807b181a88b4235b009a4203d934
:104138007b18b42252001a80b4239a00314b002114
:10414800180003f0e3ff0e243b191b88db189ab212
:104158002c497b68180001f013fb3b6801221a7098
:104168003b68013321007a181288d2b21a707b1882
:104178001b881b0a9ab23b680233d2b21a703b689a
:10418800d81c7b181b885b001a001e4b190003f013
:10419800b3ff0d23fb1800221a700a23fb18002214
:1041a8001a800fe00a203b181b88164ad15c0d22a2
:1041b800bb18ba1812788a181a703b181a883b1854
:1041c80001321a800a23fb181a880e217b181b88d3
:1041d8005b009a42e6db7b181b885b0003331a00fe
:1041e8003b689b180d22ba1812781a707b181b8826
:1041f80002339bb2db189bb21800bd4605b090bdd8
:08420800d0150020940c0020e9
:020000040000fa
:1042100080b500af02f072fb03f064fa03f074fca7
:1042200003f086fc314ad0234021d150c0462f4aaa
:10423000d023d35840221340402bf8d12b4ad4230b
:104240004021d150c046294ad423d358402213409c
:10425000402bf8d1254ae4234021d150c046234abf
:10426000e423d35840221340402bf8d11f4afc23ab
:104270004121d150c0461d4afc23d358402213404f
:10428000402bf8d1194a80235b004121d150c04610
:10429000164a80235b00d35840221340402bf7d1ad
:1042a000124a82235b004021d150c0460f4a82232c
:1042b0005b00d35840221340402bf7d10b4a962382
:1042c0005b004121d150c046084a96235b00d35879
:1042d00040221340402bf7d1054b064ada61044bcc
:1042e00004221a62c046bd4680bdc046001c004084
:0842f000000800404c800300af
:020000040000fa
:1042f80090b5c5b000af0200304b882149008c460c
:10430800bc4463441a702e4b86225200b9180b60c5
:104318002c4b1b78dbb2002b03d12b4bba18136044
:1043280014e0284b1b78dbb2012b05d1274b8622e2
:104338005200ba18136009e0224b1b78dbb2022b3b
:1043480004d1234b86225200ba18136080235b00e5
:1043580008243a1986214900791809681d48fef78a
:104368007df9030084225200b9180b60134b882191
:1043780049008c46bc4463441b78012b07d1bb1809
:104388001a683b191100180000f038fe12e00b4bb8
:10439800882252009446bc4463441b78002b09d100
:1043a80084235b00fb181a680823fb181100180007
:1043b80000f0c8fdc046bd4645b090bdf7feffff02
:1043c80080370000fa1500209c370000a037000055
:0843d800a43700004437000087
:020000040000fa
:1043e000b0b586b002af78603960324b1b78dbb273
:1043f00001225340dbb2002b2fd00e23fb180022ea
:104400001a8020e00e243b191b885b007a68d318c1
:104410001b88180003f018fc031c3968181c00f0f6
:10442000a8fe031c1a1c25003b191c88101c03f055
:10443000affc030099b2204b6200d1527b191a885d
:104440007b1901321a801d4b1b880e22ba18128864
:104450009a42d7d3174b01221a70194b1b88dbb233
:10446000013bdab2154b1b88009313000022002198
:10447000002000f027f8002300220021002002f095
:1044800007fa0f4b1b88dbb2013bdab20b4b1b88e0
:104490000093130000220021002000f013f80023f5
:1044a00000220021002002f0f3f9c046bd4604b00e
:1044b000b0bdc046fd15002000160020e41b002002
:0444c000fe150020c5
:020000040000fa
:1044c400b0b584b000af05000c0010001900fb1d4e
:1044d4002a1c1a70bb1d221c1a707b1d021c1a7028
:1044e4003b1d0a1c1a700e23fb182022ba181288ce
:1044f4001a8003f0a3fd552001f0c4fa602001f0f6
:10450400c1fafb1d1b78180001f0bcfabb1d1b7817
:10451400180001f0b7fa7b1d1b78180001f0b2fafd
:104524003b1d1b78180001f0adfa29e020203b1850
:104534001a880e217b181b88d21a174b5200d35aa3
:104544001b0a9bb2dab2154b1a703b181a880c007e
:104554007b181b88d21a104b5200d35adab20f4b75
:104564005a700e4b1b78180001f08cfa0b4b5b78d9
:10457400180001f087fa3b191a883b19013a1a808e
:104584000e23fb181b88002bd0d103f049fac04638
:10459400bd4604b0b0bdc046001600204015002042
:020000040000fa
:1045a40090b583b000af02003960fb1d1a70fb1d8b
:1045b4001b787f2b28d82f4afb1d1b785bb29b08e6
:1045c400c0339b009b58fa1d1278110003220a4045
:1045d400d200ff2191400a00d2431a4011003b68e7
:1045e4009b01ff221a40fb1d1b7818000323034084
:1045f400db009a401f48fb1d1b785bb29b080a43f3
:10460400c0339b001a5031e01b4afb1d1b78190074
:104614000f230b40083b9b0806339b00d31804333d
:104624001b68fa1d1278110003220a40d200ff21f0
:1046340091400a00d2431a4011003b689b01ff22bb
:104644001a40fb1d1b78180003230340db009a402b
:104654000948fb1d1b781c000f232340083b9b08c3
:104664000a4306339b00c31804331a60c046bd4690
:0c46740003b090bd00e100e000ed00e0ac
:020000040000fa
:1046800090b5c5b000af0200304b882149008c4680
:10469000bc4463441a70002002f084fb80239b0119
:1046a000180002f07ffbc0239b01180002f07afb88
:1046b000d4239b01180002f075fb8023db01180056
:1046c00002f070fba023db01180002f06bfb204b13
:1046d00000221a801f4b862149007a18136080231c
:1046e0005b0008243a19791809681b48fdf7baffde
:1046f000030084225200b9180b60144b8821490032
:104700008c46bc4463441b78012b07d1bb181a6844
:104710003b191100180000f075fc12e00b4b8822c9
:1047200052009446bc4463441b78002b09d1842377
:104730005b00fb181a680823fb181100180000f032
:1047400005fcc046bd4645b090bdc046f7feffff24
:0c475000d0150020803700005c3700000e
:020000040000fa
:10475c00b0b584b000af78600a00fb1c1a700f2350
:10476c00fb1800221a700ae00f203b181b782e4a07
:10477c000021d1543b181a783b1801321a700f23c0
:10478c00fb181b78092befd903f054f8902001f09b
:10479c0043f87b68dbb2180001f03ef87b681b0a1b
:1047ac00dbb2180001f038f87b681b0cdbb2180088
:1047bc0001f032f87b681b0edbb2180001f02cf80c
:1047cc00082001f029f803f051f8142001f018fe2c
:1047dc0003f030f8912001f01ff80e23fb18002293
:1047ec001a7010e00e257b191c7801f0c9fb030030
:1047fc001a000d4b1a55642001f002fe7b191a7831
:10480c007b1901321a700e23fa18fb1c12781b78d4
:10481c009a42e7d303f02af80a2001f0f1fdc046d2
:0c482c00bd4604b0b0bdc0469c15002085
:020000040000fa
:1048380080b582b002af8223da058c235b00402169
:10484800d1508223db059822042199508223db056d
:1048580040229a618223da058a235b000221d15023
:104868008223da058a235b0080210905d15082233f
:10487800da058a235b0080214905d1508223da05b5
:104888008a235b0080214903d150012001f07efd7d
:104898008223da058c235b000221d150012001f02c
:1048a80075fd8223da058c235b0080210905d15030
:1048b8008223da058c235b0080214903d150012033
:1048c80001f064fd03f05cf88223da058c235b00b9
:1048d80080214905d150fa2001f058fd2323009387
:1048e8001823a8225821c82001f008fb2021002005
:1048f80001f000fecc21fd2001f0fcfd0221442046
:0a49080001f0f8fdc046bd4680bd79
:020000040000fa
:024912007047ec
:020000040000fa
:10491400b0b5eab002af02002d4bd02149008c465d
:10492400bc4463441a70a025ff357c1900f0c4fb15
:10493400030023707b191b78264ac62464003819a7
:10494400052103f09cfb244bcc225200b9180b60c8
:10495400bb181968214a0c2578193b1900930b00e0
:10496400802103f08cfb80235b008c243a19791995
:104974001b48fdf775fe0300ca225200b9180b60ec
:10498400134bd02149008c46bc4463441b78012b53
:1049940007d1bb181a683b191100180000f030fb4e
:1049a40012e00b4bd02252009446bc4463441b7863
:1049b400002b09d1ca235b00fb181a688c23fb184f
:1049c4001100180000f0c0fac046bd4668b0b0bd82
:1049d40067feffffa837000080370000b0370000f3
:0449e4005437000044
:020000040000fa
:1049e80090b5c7b000af02002d4b8c2149008c4612
:1049f800bc4463441a702b4b180001f03bfa0300c7
:104a08008a225200b9180b60bb181b68002b42d0d1
:104a1800254b882149007a18136080235b000c24f9
:104a28003a19791809682148fdf718fe030086220b
:104a38005200b9180b601a4b8c2149008c46bc44b3
:104a480063441b78012b07d1bb181a683b19110066
:104a5800180000f0d3fa12e0114b8c225200944651
:104a6800bc4463441b78002b09d186235b00fb18e8
:104a78001a680c23fb181100180000f063fa8a2446
:104a880064003b191b68180002f046fa3b191b68c2
:104a9800180002f0e3fdc046bd4647b090bdc046d1
:104aa800effeffff64130020803700002c37000062
:020000040000fa
:104ab80080b500affff7bcfe02f062ff294b002271
:104ac8001a700020fff7aaf9274b1b78dbb2012bdd
:104ad80040d002f055ff0120fff7a0f9224b1b78c8
:104ae800dbb2012b38d00021032002f096fd03f041
:104af8006df900f0dffa03001a001c4b1a7001f080
:104b080049fb1b4b1a68194b1b781900100001f060
:104b180025ff02f0b5ff02f019ff154b1b685a1c60
:104b2800134b1a6001f0f6fa8223da058a235b0038
:104b380080214905d1500f4b00221a6004e00a4b2e
:104b48001b78dbb2012b09d00a4b1b680a4a934237
:104b5800f5d904e0c04602e0c04600e0c046bd46c4
:104b680080bdc046fd150020fa150020fb15002069
:0c4b7800d0150020d4150020830300009d
:020000040000fa
:104b8400f0b52b4ca54402af02002a4b84218900c6
:104b94008c46bc4463441a70b4235a00264b190053
:104ba400002000f0effd254b842292009446bc4483
:104bb4006344234a12681a60224ebc190c23fd1860
:104bc400b4235a001c490820381880239b00009302
:104bd4002b00fdf75bf803002380164b8422920020
:104be4009446bc4463441b78012b08d1bb191a8832
:104bf4000c23fb181100180000f002fa11e00d4b11
:104c0400842292009446bc4463441b78002b08d150
:104c14000c4bfb181a880c23fb181100180000f029
:104c240093f9c046bd4685239b009d44f0bdc04614
:104c3400e4fdfffff7fdffffc4090020f8fdffffbf
:084c44007c3700000e020000a5
:020000040000fa
:104c4c00f0b40125ed070c005c402c40a446ae0ae4
:104c5c004c18df18f4423dd2f74245d2640d4cd0cb
:104c6c007f0d3cd0e41bc9022943cf0adb022b4346
:104c7c00db0a0600b61a9f4104d2013cb6197f41eb
:104c8c00b6185f416812800d241838dd0018844274
:104c9c0025d8e80c0021b6197f41b61a9f4103d3e1
:104cac0040414941f7d304e0b6185f41001849412f
:104cbc00f1d32405b6197f41b61a9f4105d337436a
:104ccc00c20717430022012f504161416246114334
:104cdc00f0bc70470cd100280ad1f74208d2002052
:104cec00c143490d0905f1e7002a01d1f74206d06d
:104cfc000020c143090dc904eae77f0df8d000205c
:044d0c006146e5e730
:020000040000fa
:104d1000f0b587b002af0200fb1d1a7080239a0025
:104d2000274b0021180003f0f5f980239a00254b4a
:104d30000021180003f0eef90e257c19204ad42337
:104d40009b0111001800fff7e7f9030023800c26f0
:104d5000bc191c4ac0239b0111001800fff7dcf9a5
:104d6000030023807b191c88154abb191988154834
:104d7000154b0193154b00932300fef7d1fe030062
:104d8000bb60ba68114b1100180000f0dff8fb1d82
:104d90001b78012b06d1ba680c4b1100180000f0eb
:104da00031f909e0fb1d1b78002b05d1ba68074bd0
:104db0001100180000f0caf8c046bd4605b0f0bdad
:104dc000640f002064110020c409000000000020ce
:020000040000fa
:104dd00010b588293cd015dc81294dd003dc802911
:104de0004ad0002010bd822911d08429f9d1196838
:104df000002a26d00a1d1a6000228b5e0360db1792
:104e0000436011e0a02930d010dc9029e9d1196865
:104e10000724002a2ed00919a1430a0008321a607b
:104e20000b684c68036044600120dbe7c02901d0b7
:104e3000f029d6d11a68111d196013680360002388
:104e4000dee70c1d1c600b689bb203604260ebe761
:104e50001968002a04d00a1d1a600023cb56cde73a
:104e60000c1d1c600b68dbb2efe71a68111d19609e
:104e70001368c3e70731cfe71968002a03d00a1d7a
:0e4e80001a600b68bae70c1d1c600b68dde7ba
:020000040000fa
:024e8e0070476b
:020000040000fa
:104e900090b583b000af78607b68082200211800cd
:104ea00003f038f9214b1800fdf748f803001a0009
:104eb0007b681a707b685c1c1d4b1800fdf73ef880
:104ec000030023707b689c1c1a4b1800fdf736f812
:104ed000030023707b68dc1c174b1800fdf72ef8cd
:104ee000030023707b681c1d144b1800fdf726f887
:104ef000030023707b685c1d114b1800fdf71ef842
:104f0000030023707b689c1d0e4b1800fdf716f8fc
:104f1000030023707b68dc1d0b4b1800fdf70ef8b7
:104f200003002370c046bd4603b090bd88210050e9
:104f30008c2100505c210050582200506422005007
:0c4f4000682200505c220050600000500d
:020000040000fa
:104f4c0080b586b000af786039601723fb1800225b
:104f5c001a7000233b617b68002b42d0244b1b7dd5
:104f6c00dbb201225340dbb2002b3ad0204b7a68e3
:104f7c001a601f4b3a685a601d4b01221a751c4b64
:104f8c005b68fb6017e01b4b5b6807221340012b2f
:104f9c0007d07a683b69d3181a78164b92b21a85e7
:104fac0006e03b695b007a68d318124a1b881385ac
:104fbc003b6901333b610f4b1b7edbb21a000123b3
:104fcc001340012b03d13a69fb689a42dbd3084b9f
:104fdc003a699a60074b01229a751723fb18012234
:104fec001a701723fb181b781800bd4606b080bd3d
:084ffc00b4140020000c004277
:020000040000fa
:1050040080b586b000af786039601723fb180022a2
:105014001a7000233b617b68002b42d0244b1b7d1c
:10502400dbb201225340dbb2002b3ad0204b7a682a
:105034001a601f4b3a685a601d4b01221a751c4bab
:105044005b68fb6017e01b4b5b6807221340012b76
:1050540007d07a683b69d3181a78164b92b21a852e
:1050640006e03b695b007a68d318124a1b881385f3
:105074003b6901333b610f4b1b7edbb21a000123fa
:105084001340012b03d13a69fb689a42dbd3084be6
:105094003a699a60074b01229a751723fb1801227b
:1050a4001a701723fb181b781800bd4606b080bd84
:0850b400e41400200008004292
:020000040000fa
:1050bc0080b582b000af8223db051b6a01221a4047
:1050cc00fb1d511e8a411a708223db051b6a5b088b
:1050dc0001221a40bb1d511e8a411a708223da0527
:1050ec0090235b00d35801221a407b1d511e8a412c
:1050fc001a708223da0590235b00d3589b0e012291
:10510c001a403b1d511e8a411a708223db05a022d6
:10511c009b589b0b01221a40fb1c511e8a411a7092
:10512c00fb1c1b781b015ab23b1d1b78db005bb2ce
:10513c0013435ab27b1d1b789b005bb213435ab2cc
:10514c00bb1d1b785b005bb213435ab2fb1d1b7873
:10515c005bb213435ab2bb1c1a70bb1c1b781800f1
:06516c00bd4602b080bd4b
:020000040000fa
:1051720030b405004d400124e407254042004b00b5
:10518200120e32d01b0e3cd0ff2a33d0ff2b3fd061
:10519200d21800022043000a09022143090ac4b2bc
:1051a2004c43000ac3b24b43000a4843210a5b182e
:1051b200190a091801d44900013a080a7f3a2adb80
:1051c200fe2a0fd2d2051c43240601d0012421431a
:1051d200c9b280295041802901d1400840002843aa
:1051e20030bc7047ff20c005f9e71b0eff2b0ad029
:1051f2002800f5e7400206d1ff2bf3d1490202d184
:10520200f0e7ff2af4d17f2000010c300005e7e728
:105212004902f8d1e6e743020132e9d15b120233d7
:06522200e6d9d805e4e71f
:020000040000fa
:1052280080b582b000af786008001100fb1c021c3a
:105238001a70bb1c0a1c1a70224bc2221a707b6897
:105248001b0adab21f4b5a707b68dab21d4b9a7090
:105258001c4bfa1c1278da701a4bba1c12781a71a5
:10526800184b05211800fcf79dff03001a00164b88
:105278001a70154b1a78134b5a71c046134b1b788a
:10528800dbb201225340dbb2002bf7d10f4b0022d7
:105298001a70c04602f03cf9031efbd10c4b0522e4
:1052a8001900612002f01cfbc046084b1b78dbb2da
:1052b80001225340dbb2002bf7d1c046bd4602b0f5
:1052c80080bdc046c8150020fc150020e61b002044
:0452d800c9150020d4
:020000040000fa
:1052dc0080b584b000af284b2c229b5cdbb2002b3a
:1052ec0046d0254bdb69fb60234b1b6afa689a425c
:1052fc003ed9214b9b6abb60204abb1d128d1a8084
:10530c001d4b1b6a3b601d4b5b6807221340012b36
:10531c0008d0194b9a693b68d318ba1d1288d2b2bf
:10532c001a7007e0144b9a693b685b00d318ba1dde
:10533c0012881a803b6801333b600f4b3a681a6243
:10534c000d4bdb693a689a4212d10b4b2c2200218f
:10535c009954094b0022da61084b84221a75064bca
:10536c005b6a002b04d0044b5b6aba681000984748
:10537c00c046bd4604b080bdb4140020000c0042f1
:020000040000fa
:10538c0080b584b000af284b2c229b5cdbb2002b89
:10539c0046d0254bdb69fb60234b1b6afa689a42ab
:1053ac003ed9214b9b6abb60204abb1d128d1a80d3
:1053bc001d4b1b6a3b601d4b5b6807221340012b86
:1053cc0008d0194b9a693b68d318ba1d1288d2b20f
:1053dc001a7007e0144b9a693b685b00d318ba1d2e
:1053ec0012881a803b6801333b600f4b3a681a6293
:1053fc000d4bdb693a689a4212d10b4b2c220021df
:10540c009954094b0022da61084b84221a75064b19
:10541c005b6a002b04d0044b5b6aba681000984797
:10542c00c046bd4604b080bde41400200008004214
:020000040000fa
:10543c0080b584b002af264b1b78dbb201225340ff
:10544c00dbb2002b17d0bb1d00221a800ae0bb1d5b
:10545c001a88204b52000021d152bb1d1a88bb1d4b
:10546c0001321a801c4b1b88ba1d12889a42eed34b
:10547c00174b01221a70194b1b88dbb2013bdab2b5
:10548c00154b1b8800931300002200210020fff70e
:10549c0013f8002300220021002001f0f3f90f4b38
:1054ac001b88dbb2013bdab20b4b1b880093130059
:1054bc00002200210020fef7ffff00230022002124
:1054cc00002001f0dff9c046bd4602b080bdc046e9
:1054dc00fd15002000160020e41b0020fe15002006
:020000040000fa
:1054ec0090b587b000aff860b960bb1d1a80bb1dca
:1054fc001b88002b44d0bb1d1a8880235b009a426a
:10550c003ed802f087fb8223db05942180225204d3
:10551c005a50022000f0e0f8fb681b0cdbb21800bc
:10552c0000f0daf8fb681b0adbb2180000f0d4f8c4
:10553c00fb68dbb2180000f0cff81623fb18002232
:10554c001a800de016243b191b88ba68d3181b78f7
:10555c00180000f0c1f83b191a883b1901321a8067
:10556c001623fa18bb1d12881b889a42ead3822391
:10557c00db059821802252045a5001f0e9ff00e02b
:08558c00c046bd4607b090bd0a
:020000040000fa
:1055940090b5c5b000af0200244b882149008c4669
:1055a400bc4463441a708223da058a235b00802199
:1055b4004905d1501e4b862149007a181360802377
:1055c4005b0008243a19791809681a48fdf748f865
:1055d400030084225200b9180b60144b882149003f
:1055e4008c46bc4463441b78012b07d1bb181a6852
:1055f4003b1911001800fff703fd12e00b4b882242
:1056040052009446bc4463441b78002b09d1842384
:105614005b00fb181a680823fb1811001800fff739
:1056240093fcc046bd4645b090bdc046f7feffffa3
:0856340080370000143700006c
:020000040000fa
:10563c0090b5c5b000af0200244b882149008c46c0
:10564c00bc4463441a708223da058c235b008021ee
:10565c004905d1501e4b862149007a1813608023ce
:10566c005b0008243a19791809681a48fcf7f4ff0a
:10567c00030084225200b9180b60144b8821490096
:10568c008c46bc4463441b78012b07d1bb181a68a9
:10569c003b1911001800fff7affc12e00b4b8822ee
:1056ac0052009446bc4463441b78002b09d18423dc
:1056bc005b00fb181a680823fb1811001800fff791
:1056cc003ffcc046bd4645b090bdc046f7feffff4f
:0856dc00803700001c370000bc
:020000040000fa
:1056e40080b584b000af0200fb1d1a700f23fb18b5
:1056f40000221a700723bb603ae0fb1d1a78bb68ce
:105704001a4113000122134007d08223da058c23a7
:105714005b0080214904d15006e08223da058a2304
:105724005b0080214904d1508223db05982180222b
:1057340092045a500f217a187b181b78db181370c7
:105744008223da0590235b00d3585b0e01221340b9
:1057540005d07b187a18127801210a431a70822323
:10576400db059421802292045a50bb68013bbb6044
:10577400bb68002bc1da0f23fb181b781800bd4649
:0457840004b080bd30
:020000040000fa
:10578800b0b586b000aff860b960bb1d1a80bb68c1
:10579800002b3fd0bb1d1b88002b3bd08223db0591
:1057a8009421802252045a500320fff797fffb6888
:1057b8001b0cdbb21800fff791fffb681b0adbb27a
:1057c8001800fff78bfffb68dbb21800fff786ffb6
:1057d8001623fb1800221a800ee016257b191b8859
:1057e800ba68d4180020fff779ff030023707b19eb
:1057f8001a887b1901321a801623fa18bb1d1288e1
:105808001b889a42e9d38223db059821802252041f
:0c5818005a5000e0c046bd4606b0b0bdce
:020000040000fa
:1058240080b584b000af0200fb1d1a700f23fb1873
:1058340000221a7032e0fb1d1b785bb2002b07dae2
:105844008223da058c235b0080210903d15006e012
:105854008223da058a235b0080210903d15002f0f8
:105864008efc8223da058c235b0080218902d150cf
:1058740002f085fc8223da058a235b0080218902f9
:10588400d15002f07cfcfa1dfb1d1b78db18137051
:105894000f217b181a787b1801321a700f23fb181a
:1058a4001b78072bc7d98223da058a235b00802162
:0c58b4000903d150c046bd4604b080bdc1
:020000040000fa
:1058c00080b582b000af786039607b6801221340f8
:1058d00038d0204b1b78dbb2012b13d0022b21d008
